{
  "abi": [
    {
      "inputs": [
        {
          "internalType": "address",
          "name": "_token",
          "type": "address"
        },
        {
          "internalType": "uint256",
          "name": "_amount",
          "type": "uint256"
        }
      ],
      "name": "lock",
      "outputs": [],
      "stateMutability": "nonpayable",
      "type": "function"
    },
    {
      "inputs": [
        {
          "internalType": "address",
          "name": "",
          "type": "address"
        }
      ],
      "name": "tokenToUser",
      "outputs": [
        {
          "internalType": "uint256",
          "name": "amount",
          "type": "uint256"
        },
        {
          "internalType": "uint32",
          "name": "counter",
          "type": "uint32"
        }
      ],
      "stateMutability": "view",
      "type": "function"
    },
    {
      "inputs": [
        {
          "internalType": "address",
          "name": "_token",
          "type": "address"
        },
        {
          "internalType": "uint256",
          "name": "_amount",
          "type": "uint256"
        }
      ],
      "name": "unlock",
      "outputs": [],
      "stateMutability": "nonpayable",
      "type": "function"
    }
  ],
  "bytecode": {
    "object": "0x608060405234801561001057600080fd5b50610378806100206000396000f3fe608060405234801561001057600080fd5b50600436106100415760003560e01c8063282d3fdf146100465780637eee288d1461005b578063a18b506b1461006e575b600080fd5b61005961005436600461026e565b6100b9565b005b61005961006936600461026e565b610167565b61009b61007c366004610298565b6000602081905290815260409020805460019091015463ffffffff1682565b6040805192835263ffffffff90911660208301520160405180910390f35b6040516323b872dd60e01b8152336004820152306024820152604481018290526001600160a01b038316906323b872dd906064016020604051808303816000875af115801561010c573d6000803e3d6000fd5b505050506040513d601f19601f8201168201806040525081019061013091906102ba565b506001600160a01b038216600090815260208190526040812080549091839183919061015d9084906102f2565b9091555050505050565b6001600160a01b0382166000908152602081905260408120600180820180549293919290919061019e90849063ffffffff1661030b565b92506101000a81548163ffffffff021916908363ffffffff160217905550818160000160008282546101d0919061032f565b90915550506040516323b872dd60e01b8152306004820152336024820152604481018390526001600160a01b038416906323b872dd906064016020604051808303816000875af1158015610228573d6000803e3d6000fd5b505050506040513d601f19601f8201168201806040525081019061024c91906102ba565b50505050565b80356001600160a01b038116811461026957600080fd5b919050565b6000806040838503121561028157600080fd5b61028a83610252565b946020939093013593505050565b6000602082840312156102aa57600080fd5b6102b382610252565b9392505050565b6000602082840312156102cc57600080fd5b815180151581146102b357600080fd5b634e487b7160e01b600052601160045260246000fd5b80820180821115610305576103056102dc565b92915050565b63ffffffff818116838216019080821115610328576103286102dc565b5092915050565b81810381811115610305576103056102dc56fea2646970667358221220f85f7be1f2e681851b4c0309c6b1e1e3bf752e8631acb6def654be58ede8237e64736f6c63430008130033",
    "linkReferences": {}
  },
  "methodIdentifiers": {
    "lock(address,uint256)": "282d3fdf",
    "tokenToUser(address)": "a18b506b",
    "unlock(address,uint256)": "7eee288d"
  },
  "id": 1
}